:100000000C9413070C945A070C945A070C945A0733
:100010000C945A070C945A070C945A070C945A07DC
:100020000C945A070C945A070C94452C0C94172DD9
:100030000C949F220C945A070C945A070C945A075C
:100040000C945A070C945A070C945A070C945A07AC
:100050000C945A070C9407230C945A070C945A07D3
:100060000C945A070C945A070C945A070C945A078C
:100070000C945A070C945A070C945A070C945A077C
:100080000C945A070C945A070C945A070C945A076C
:100090000C945A070C945A070C945A070C945A075C
:1000A0000C945A070C945A070C945A07AC09AE09E1
:1000B000B909B009B209B409B609B809BB09BD0943
:1000C000BF09CA09C109C309C509C709C909CC09BA
:1000D0004F184F1881188118BF18DF18741A741A36
:1000E0002119741ACE19CE19401A491A741A6D1AA8
:1000F000DB19DB19DB19DB19DB19DB19DB19DB1960
:10010000DB19DB19DB19DB19DB19DB19DB19DB194F
:10011000EC19FA19011A081A121A031B031B151BF2
:10012000151B0C1B151B151B151B031B031B111B80
:10013000151B151B111B842DAB2D9D2EAB2D9D2E3C
:10014000F72D1A2E9D2E702E7F2E07634236B79BF9
:10015000D8A71A39685618AEBAAB558C1D3CB7CC27
:100160005763BD6DEDFD753EF6177231BF0000009F
:10017000803F05A84CCDB2D44EB93836A9020C50F8
:10018000B9918688083CA6AAAA2ABE000000803F32
:10019000165C1E001F002000210022002300240006
:1001A0002500260027002D002E002A002A003500F9
:1001B0002B00000014001A000800150017001C0096
:1001C00018000C00120013002F00300031004B000B
:1001D0003900000004001600070009000A000B00A7
:1001E0000D000E000F0033003400280000004E0008
:1001F000E10000001D001B000600190005001100B1
:1002000010003600370038000000E50052004D00B5
:10021000E000E2000000E3002C0000002C000000E1
:100220002C000000E7000151E400500051004F0095
:1002300035003A003B003C003D003E003F004000DE
:10024000410042004300440045004C004C00005C6B
:1002500001000000C25CC35CC55CC65CC75CC85CD6
:10026000C95CCA5C0100010001000100010001003D
:1002700001000000CD5CCE5CCF5CD05CD15CD25C78
:10028000D35CD45CD55C01000100010000000100DA
:100290000100010001000100BD5CBF5CBE5C01000B
:1002A0000100010001000100000001000100010047
:1002B0000100010000000100010000000100000039
:1002C0000100000001000100010001000100010027
:1002D00001000030013002300330043005300630B8
:1002E0000730083009300A300B30010001000100EE
:1002F00001000000010001000100010001000100F7
:1003000001000100010001000100010001000100E5
:1003100001000000010001000100010001000100D6
:1003200001000100010001000100010000000100C6
:1003300001000100010001000100010001000100B5
:1003400001000100010001000000010001000100A6
:100350000100010000000100010000000100000098
:100360000100000001000100010001000100010086
:100370000100010001000100010001000100010075
:100380000100010001000100010001000100010065
:100390000100000001000100010001000100010056
:1003A0000100010001000100010001000100010045
:1003B0000100000001000100010001000100010036
:1003C0000100010001000100010001000000010026
:1003D0000100010001000100010001000100010015
:1003E0000100010001000100000001000100010006
:1003F00001000100000001000100000001000000F8
:1004000001000000010001000100010001000100E5
:1004100001000100010001000100010001000100D4
:1004200001000100010001000100010001000100C4
:1004300001000000010001000100010001000100B5
:1004400001000100010001000100010001000100A4
:100450000100000001000100010001000100010095
:100460000100010001000100010001000000010085
:100470000100010001000100010001000100010074
:100480000100010001000100000001000100010065
:100490000100010000000100010000000100000057
:1004A0000100000001000100010001000100010045
:1004B0000100010001000100010001000100010034
:1004C0000100010001000100010001000100010024
:1004D0000100000001000100010001000100010015
:1004E0000100010001000100010001000100010004
:1004F00001000000010001000100010001000100F5
:1005000001000100010001000100010000000100E4
:1005100001000100010001000100010001000100D3
:1005200001000100010001000000010001000100C4
:1005300001000100000001000100000001000000B6
:1005400001000000010001000100010001000100A4
:100550000100010001000100010001000100010093
:100560000100010001000100010001000100010083
:100570000100000001000100010001000100010074
:100580000100010001000100010001000100010063
:100590000100000001000100010001000100010054
:1005A0000100010001000100010001000000010044
:1005B0000100010001000100010001000100010033
:1005C0000100010001000100000001000100010024
:1005D0000100010000000100010000000100000016
:1005E0000100000001000100010001000100010004
:1005F00001000100010001000100010001000100F3
:1006000001000100010001000100010001000100E2
:1006100001000000010001000100010001000100D3
:1006200001000100010001000100010001000100C2
:1006300001000000010001000100010001000100B3
:1006400001000100010001000100010000000100A3
:100650000100010001000100010001000100010092
:100660000100010001000100000001000100010083
:100670000100010000000100010000000100000075
:100680000100000001000100010001000100010063
:100690000100010001000100010001000100010052
:1006A0000100010001000100010001000100010042
:1006B0000100000001000100010001000100010033
:1006C0000100010001000100010001000100010022
:1006D0000100000001000100010001000100010013
:1006E0000100010001000100010001000000010003
:1006F00001000100010001000100010001000100F2
:1007000001000100010001000000010001000100E2
:1007100001000100000001000100000001000000D4
:1007200001000000010001000100010001000100C2
:1007300001000100010001000100010001000100B1
:1007400001000100010001000100010001000100A1
:100750000100000001000100010001000100010092
:100760000100010001000100010001000100010081
:100770000100000001000100010001000100010072
:100780000100010001000100010001000000010062
:100790000100010001000100010001000100010051
:1007A0000100010001000100000001000100010042
:1007B0000100010000000100010000000100000034
:1007C0000100000001000100010001000100010022
:1007D0000100010001000100010001000100010011
:1007E0000100010001000100010001000100010001
:1007F00001000000010001000100010001000100F2
:1008000001000100010001000100010001000100E0
:1008100001000000010001000100010001000100D1
:1008200001000100010001000100010000000100C1
:1008300001000100010001000100010001000100B0
:1008400001000100010001000000010001000100A1
:100850000100010000000100010000000100000093
:100860000100000001000100010001000100010081
:100870000100010001000100010001000100010070
:100880000100010001000100010001000100010060
:100890000100000001000100010001000100010051
:1008A0000100010001000100010001000100010040
:1008B0000100000001000100010001000100010031
:1008C0000100010001000100010001000000010021
:1008D0000100010001000100010001000100010010
:1008E0000100010001000100000001000100010001
:1008F00001000100000001000100000001000000F3
:1009000001000000010001000100010001000100E0
:1009100001000100010001000100010001000100CF
:1009200001000100010001000100010001000100BF
:1009300001000000010001000100010001000100B0
:10094000010001000100010001000100010001009F
:100950000100000001000100010001000100010090
:100960000100010001000100010001000000010080
:10097000010001000100010001000100010001006F
:100980000100010001000100000001000100010060
:100990000100010000000100010000000100000052
:1009A0000100000001000100010001000100010040
:1009B000010001000100010001000100010001002F
:1009C000010001000100010001000100010001001F
:1009D0000100000001000100010001000100010010
:1009E00001000100010001000100010001000100FF
:1009F00001000000010001000100010001000100F0
:100A000001000100010001000100010000000100DF
:100A100001000100010001000100010001000100CE
:100A200001000100010001000000010001000100BF
:100A300001000100000001000100000001000000B1
:100A4000010000000100010001000100010001009F
:100A5000010001000100010001000100010001008E
:100A6000010001000100010001000100010001007E
:100A7000010000000100010001000100010001006F
:100A8000010001000100010001000100010001005E
:100A9000010000000100010001000100010001004F
:100AA000010001000100010001000100000001003F
:100AB000010001000100010001000100010001002E
:100AC000010001000100010000000100010001001F
:100AD0000100010000000100010000000100000011
:100AE00001000000010001000100010001000100FF
:100AF00001000100010001000100010001000100EE
:100B000001000100010001000100010001000100DD
:100B100001000000010001000100010001000100CE
:100B200001000100010001000100010001000100BD
:100B300001000000010001000100010001000100AE
:100B4000010001000100010001000100000001009E
:100B5000010001000100010001000100010001008D
:100B6000010001000100010000000100010001007E
:100B70000100010000000100010000000100000070
:100B8000010000000100010001000100010001005E
:100B900000047F3F1F643214643214783C1E1E141C
:100BA0000A056801F000B40078005A000000000057
:100BB0000001010101010101010102020202020220
:100BC00002020203030303030303030404040404F3
:100BD00004050505050506060606060707070708B6
:100BE0000808080909090A0A0A0A0B0B0B0C0C0C65
:100BF0000D0D0D0E0E0F0F0F1010111111121213FB
:100C0000131414151516161717181819191A1A1B74
:100C10001C1C1D1D1E1F1F202021222223242525D0
:100C200026272728292A2B2B2C2D2E2F2F30313207
:100C300033343536363738393A3B3C3D3E3F404118
:100C4000424344464748494A4B4C4D4F50515253FA
:100C5000555657585A5B5C5E5F60626364666769AD
:100C60006A6C6D6E707173747678797B7C7E80812E
:100C7000838486888A8B8D8F91929496989A9B9D77
:100C80009FA1A3A5A7A9ABADAFB1B3B5B7B9BBBD84
:100C9000BFC1C4C6C8CACCCFD1D3D6D8DADCDFE155
:100CA000E4E6E8EBEDF0F2F5F7FAFCFF04033000C0
:100CB000000010034B00420044003600370076006D
:100CC000320000000E0364007A00740065006300C7
:100CD000680000000403090409023B00020100A0AF
:100CE000FA090400000103010100092111010001BA
:100CF0002240000705810308000A090401000103DE
:100D000000000009211101000122C0000705820333
:100D100020000A1201100100000008EDFE606001D1
:100D2000000102030105010902A10185020901A1D7
:100D30000005091901290515002501950575018191
:100D400002950175038101050109300931158125DD
:100D50007F95027508810609381581257F950175F3
:100D6000088106050C0A38021581257F9501750852
:100D70008106C0C005010980A10185031601002676
:100D800003001A81002A8300751095018100C005B7
:100D90000C0901A1018504160100269C021A01001C
:100DA0002A9C02751095018100C005010906A10168
:100DB0008505050719E029E7150025019508750146
:100DC0008102050819012905950575019102950112
:100DD000750391010507190029EF1500250195F00C
:100DE00075018102C005010906A101050719E02965
:100DF000E7150025019508750181029501750881A7
:100E000001050819012905950575019102950175DE
:100E10000391010507190029FF150026FF0095061B
:100E200075088100C00011241FBECFEFDAE0DEBFDD
:100E3000CDBF04B603FE27C080919B0290919C0217
:100E4000A0919D02B0919E028730904BA740B04B7D
:100E5000D1F410929B0210929C0210929D0210926B
:100E60009E0214BE84B7877F84BF0FB6F894A895FE
:100E700080916000886180936000109260000FBED6
:100E8000E0E0F8E3099511E0A0E0B1E0E6EDF5E679
:100E900002C005900D92A633B107D9F722E0A6E370
:100EA000B1E001C01D92AB39B207E1F70E9467299A
:100EB0000C94E9320C94000080E090E008950895CD
:100EC000089581E0089581FF02C0549A01C05498AA
:100ED0005C98089581E008950C9461070C94280DA6
:100EE000CF92DF92EF92FF92843030F4811105C0EF
:100EF000909180009F7704C083E09091800090687B
:100F000090938000282F30E0AFEFBFEF0E947A323D
:100F100023E030E040E050E00E9452322C3784E180
:100F200038074105510530F4C90169E070E00E94BD
:100F30002A3229C0DA01C9018A50974DAF4FBF4FFD
:100F40006627782F892F9A2F25EF38E241E050E06D
:100F50000E94523269017A01CA01B9010E941A3213
:100F60009B01AC01C701B6010E941A32BB27A92F11
:100F7000982F872F009721E0A207B10511F0BC013F
:100F800002C06FEF7FEF7093890060938800FF903D
:100F9000EF90DF90CF900895259A2D9882E8809366
:100FA000800089E1809381008FEF9FEF909387000D
:100FB000809386000C94E7260E943521811102C09F
:100FC0000E94B6210E94CC070C94260D0C94630756
:100FD0000C94E60708950E94F31A0E94EA072FEF87
:100FE00084E39CE0215080409040E1F700C0000085
:100FF0000C942D23FF920F931F93CF93DF938C01BB
:10100000FC01C081D18180918301811113C0828153
:10101000882349F0CE010E942820F82E682FCE01A7
:101020000E94CD1F04C0CE010E94FC1FF82EBE01FD
:101030008F2D04C0CE010E942820BE010E94790A93
:10104000EC01B8010E946C07882309F44AC2CC3C29
:10105000FCE5DF0709F4DFC0E8F5C43C9CE5D907EF
:1010600009F4A3C0F8F4C531FCE5DF0778F4C23019
:101070008CE5D80708F04EC1C1159CE5D90709F4E5
:1010800065C0C130DC4509F469C01EC2C23CFCE544
:10109000DF0709F476C008F07CC0C631DC4509F4EE
:1010A000ECC112C2F8018281C83CFCE5DF0709F4FB
:1010B0009AC040F4C63CECE5DE0709F488C008F4A9
:1010C00080C08BC0CA3C9CE5D90709F498C008F4DD
:1010D00090C09BC0C43DFCE5DF0709F4F6C0C0F436
:1010E000F8018281C03DFCE5DF0709F4BDC040F492
:1010F000CE3CECE5DE0709F49BC008F494C0A6C022
:10110000C23D9CE5D90709F4CDC008F4BDC0D8C0E4
:10111000C83DFCE5DF0709F495C150F4F801828170
:10112000C63DFCE5DF0709F447C108F4DEC065C130
:10113000CC3DECE5DE0709F4E4C0CD3DFCE5DF077E
:10114000C1F0CB3DDC4509F0BFC1D4C0F8018281BC
:10115000882309F4C6C10E94EB07C3C1F80182814C
:10116000882309F4BEC180911B02816080931B0219
:10117000B8C1F8018281882309F4B3C10E94B62165
:10118000B0C1F8018281882309F4ABC10E94A81183
:10119000A8C1F8018281882309F4A3C10E94F92023
:1011A000827261F00E944D119CC1F80182818823F6
:1011B00009F497C10E94F9208272A1F30E943F11A5
:1011C00090C1882309F48DC10E9442108AC18823EE
:1011D00009F487C10E94661084C1882309F481C183
:1011E0000E9486107EC1882309F47BC10E94A6104C
:1011F00078C1882309F475C10E94C61072C1882382
:1012000009F46FC10E94E6106CC1882309F469C11A
:101210000E94FE0E66C1F8018281882309F461C133
:101220000E94130F5EC1882309F45BC181E029C0CD
:10123000882309F456C10E94F50E823028F00E94DE
:10124000F50E853008F4BACF82E01BC0882309F47C
:1012500048C10E94F50E863028F00E94F50E8830B5
:1012600008F4ACCF86E00DC0882309F43AC10E948F
:10127000F50E893028F00E94F50E8E3008F49ECFCE
:1012800089E00E9450112DC1882309F42AC10E94CF
:10129000F50E8F3028F00E94F50E843108F48ECFC1
:1012A0008FE0EFCF882309F41CC10E94F50E853131
:1012B00028F00E94F50E873108F480CF85E1E1CF58
:1012C000882309F40EC188E1DCCFF80182818823EC
:1012D00009F407C10E94F50E893128F00E94F50E2D
:1012E000823208F46BCF89E1CCCF882309F4F9C0AE
:1012F00083E2C7CFF8018281882309F4F2C080E03D
:1013000006C0F8018281882309F4EBC082E00E94C4
:10131000082AE7C0F8018281882309F4DAC00E9414
:101320003521811102C00E94B6210E94522190E015
:1013300090938C0280938B02FE01E350FC45E231D6
:10134000F10530F4EA5AFF4F80918B020C9474320D
:1013500080918B02816027C0826025C0846023C099
:10136000806121C080621FC080641DC080681BC076
:101370008460886018C08E7F16C08D7F14C08B7FFC
:1013800012C08F7E10C08F7D0EC08F7B0CC08F77F8
:101390000AC08B7F877F07C087FB222720F991E057
:1013A000922790FB87F980938B0280918B020E9499
:1013B00056210E94F31A95C0882351F010923B01E8
:1013C0000E94D122909338018093370182E020C09F
:1013D00080913B0181110FC08091370190913801BC
:1013E0000E94DD22883C910530F486E20E94851639
:1013F00086E20E94A31782E022C0882361F0109247
:101400003C010E94D12290933A018093390180E2FD
:101410000E940B1866C080913C0181110FC0809121
:10142000390190913A010E94DD22883C910530F407
:1014300087E20E94851687E20E94A31780E20E943D
:1014400012184FC0F80182818111D9CF80913C01DF
:101450008111F4CF8091390190913A010E94DD22EF
:10146000883C910558F780E20E94121888E20E9499
:10147000851688E20E94A31734C00E94F920282F05
:10148000F801828140910D0150910E01882379F07D
:101490002A7A91E009F490E090933601911102C00C
:1014A00069E201C065E3CA010E941D220AC0809161
:1014B0003601811102C069E201C065E3CA010E94E0
:1014C00028220E94C6200DC081E080933B018093BA
:1014D0003C01C801DF91CF911F910F91FF900C94B7
:1014E0006A0780E0DF91CF911F910F91FF900895DF
:1014F0000895E72FF0E095E0899FE00DF11D11249C
:1015000084E0EE0FFF1F8A95E1F7E60FF11DEE0F65
:10151000FF1FE057FE4F859194910895880F991F02
:10152000FC01E057F44F859194910895CF93DF9398
:101530000E94790A0E94860CEC01811521E5920730
:1015400008F042C0811560E5960708F02CC1883E7E
:10155000910500F5803E910508F0D4C1883A9105C7
:1015600070F4853A910508F0A2C08130910509F424
:10157000C9C108F47AC1049708F0C4C176C18F3B91
:10158000910508F49FC0803C910508F46EC1805C11
:101590009109F9C0C11580E3D80780F4C11590E224
:1015A000D90708F0EEC0C03FD10508F45EC1CF3FB7
:1015B000D10511F008F0A6C1D065A4C1C11520E481
:1015C000D20708F0EDC0E2C0811569E5960760F525
:1015D000C11588E5D80708F032C1C11594E5D907CF
:1015E00078F4C11523E5D20708F00EC1C11562E5F4
:1015F000D60708F0F3C0DC2FCC27C16FD06A82C1B8
:10160000C11585E5D80708F415C1C11596E5D907B8
:1016100008F02BC18C2F0E94030D8F71C82FD0E0D2
:10162000DC2FCC27D0626EC18D3B2CE5920709F4EC
:1016300013C1D0F4CB3B8CE5D80709F407C108F0FF
:1016400008C1C1152AE5D20708F00FC12C2F2F7051
:10165000206E30E0306A84E0D695C7958A95E1F730
:10166000CF70C9019C2BF0C0803C9C4509F4FAC0A6
:10167000C13C8CE5D80760F4CE3B9CE5D90709F462
:10168000EEC0CF3BDC4509F0F0C0C0E0D2ED3AC17E
:10169000CE0190568115904208F0E7C08D2F8F71D2
:1016A0000E94030DDD27D0628F71D82B2BC1853AA4
:1016B000910509F4DDC0863A910509F0DCC0C2E865
:1016C000D0E420C1883A910509F4D8C0893A91053F
:1016D00009F4D7C08A3A910509F4D6C08B3A91052E
:1016E00009F4D5C08C3A910509F4D4C08B3B91051F
:1016F00009F4D3C08C3B910509F4D2C08D3A910511
:1017000009F4D1C0803B910509F4D0C08E3A91050F
:1017100009F4CFC08F3A910509F4CEC0813B910501
:1017200009F4CDC0823B910509F4CCC0833B9105FF
:1017300009F4CBC0843B910509F4CAC0853B9105EF
:1017400009F4C9C0863B910509F4C8C0873B9105DF
:1017500009F4C7C0883B910509F4C6C0893B9105CF
:1017600009F4C5C08D3B910509F4C4C08E3B9105B9
:1017700009F4C3C08A3B910509F4C2C0C0E0D4E4B7
:10178000C1C0CE019F700E948E0A5EC0CE01992713
:10179000D3FF03C0EC01D86CB5C0EC01D06CB2C073
:1017A000DF70D06AAFC0837021E030E002C0220F4A
:1017B000331F8A95E2F73C68CE0154E096958795F1
:1017C0005A95E1F78370382BCF70C695C69580E2A5
:1017D000C89FE0011124C22BD32B94C04C2F4695F7
:1017E000469590E2499FA0011124C370DD2721E0B6
:1017F00030E0C90102C0880F991FCA95E2F7EC01D9
:10180000C42BD52BDC687EC04C2F4695469580E2D4
:10181000489FA0011124C370DD2721E030E0C901F9
:1018200002C0880F991FCA95E2F7EC01C42BD52B93
:10183000DA6868C0DC2FCC27C46FD06A63C0DC2FA5
:10184000CC27C06FD06A5EC0EC015CC0C0E0D4EDB4
:1018500059C0C0E0D5ED56C0C0E0D1ED53C0C0E0E6
:10186000D0ED50C0C0E0D3ED4DC0C0E0D0E04AC0E4
:10187000C1E8D0E447C0C3E8D0E444C0C2EED4E439
:1018800041C0C9EED4E43EC0CAEED4E43BC0C5EBCF
:10189000D4E438C0C6EBD4E435C0C3EBD4E432C0E2
:1018A000C4EBD4E42FC0C7EBD4E42CC0CCECD4E41C
:1018B00029C0CDECD4E426C0C3E8D5E423C0CAE8EF
:1018C000D5E420C0C2E9D5E41DC0C4E9D5E41AC0FE
:1018D000C1E2D6E417C0C3E2D6E414C0C4E2D6E441
:1018E00011C0C5E2D6E40EC0C6E2D6E40BC0C7E222
:1018F000D6E408C0CFE6D4E405C0C0E7D4E402C013
:10190000CAE2D6E4CE01DF91CF91089582389105E5
:1019100049F1B0F48133910509F458C048F4893293
:10192000910509F44EC08A32910509F454C0089516
:101930008533910509F440C08933910599F00895E4
:10194000833E910529F138F4803E910591F0823E65
:101950009105A1F00895863E9105F9F0873E910525
:1019600031F1089520918B0220FD3AC021FD38C04D
:10197000089580918B0280FD35C032C080918B022A
:1019800082FF32C080918B0284FD30C083EE39C06B
:1019900080918B0282FD28C0F5CF80918B0283FF5E
:1019A00027C080918B0284FD21C087EE2AC08091E0
:1019B0008B0283FD1DC0F5CF80918B0285FD1AC07F
:1019C0001BC080918B0285FD17C014C080918B02D3
:1019D00086FD14C015C080918B0286FD11C00EC01B
:1019E00080EE0FC089E30DC082EE0BC080E009C01D
:1019F00086EE07C089E205C085E303C08AE201C024
:101A000081E390E0089590918B0292FF0DC0282F02
:101A10002871283019F4877F846006C0282F24712C
:101A2000243011F48B7F886093FF0DC0282F28711C
:101A3000283119F4877E846106C0282F247124314F
:101A400011F48B7E886194FD877E08950C945F0766
:101A50000C946007E0E3F1E041E050E025E02E0F58
:101A60009191A92FA295AF70B0E091963C9191977A
:101A70009F70BA0102C0660F771F9A95E2F7CB01FB
:101A80008095832391968C932E13EACFA0E2B1E048
:101A900041E050E020E12A0F8D91E82FE295EF70B0
:101AA000F0E031A18F70BA0102C0660F771F8A95EE
:101AB000E2F7CB01962F9095932391A392A1892BC6
:101AC00082A32A13E9CFE7E4F1E0ADE3B1E011929C
:101AD00011921D921D9271E0E135F707C1F785E083
:101AE0000E94160E0C94DC074F925F927F928F92A9
:101AF0009F92AF92BF92CF92DF92EF92FF920F939D
:101B00001F93CF93DF9320E3422E21E0522EA7E4D0
:101B1000B1E020E001E010E05D018D909C90119714
:101B200011961C921E92E20189912E01E82FE295F6
:101B3000EF70F0E031A18F70A80102C0440F551F73
:101B40008A95E2F7CA01342B31A342A1382F309590
:101B5000432342A350EA5A95F1F790E2C92E91E04F
:101B6000D92E40E050E0E60179906E01672D629534
:101B70006F7070E0EB01E8A06D917C911197F12CF2
:101B8000D72DDF7002C0F594E794DA95E2F7E0FC18
:101B900008C07801042E02C0EE0CFF1C0A94E2F784
:101BA00002C0E12CF12C6E297F2911967C936E9353
:101BB0004F5F5F4F40315105B1F691A1392331A3F9
:101BC00092A1892B82A3129681E0F5014081518177
:101BD0008416950609F480E0282BF1E0A135BF07B3
:101BE00009F09ACF45E06DE371E087E491E00E944F
:101BF000170E0E946E0781E0DF91CF911F910F9128
:101C0000FF90EF90DF90CF90BF90AF909F908F901C
:101C10007F905F904F900895E82FF0E0EE0FFF1F48
:101C2000E35CFE4F80819181089508950895FF92AD
:101C30000F931F93CF93DF93F82E092F162FD72FD3
:101C4000C42F222349F081E0809353010E94D122C6
:101C50009093520180935101809153018823B9F0F0
:101C600080915101909152010E94DD22069778F0F7
:101C7000EF2DF02FA12FBD2F80E08C1731F0219197
:101C800031912D933D938F5FF8CF10925301DF91E7
:101C9000CF911F910F91FF900895EF92FF920F93B4
:101CA0001F93CF93DF93E901413F08F040EF662394
:101CB00009F44BC0242F30E0EFEFF0E0E61BF10910
:101CC000B901E69F9001E79F300DF69F300D11247A
:101CD000232F8B01031B11095CE3E52EF12CB701C7
:101CE0000E942A32FB01BC01069FC001079F900D94
:101CF000169F900D1124B7010E942A32E230F1059F
:101D0000B1F040F4309779F0319711F5832F242FFB
:101D1000461B21C0E430F105A1F068F03597C1F40D
:101D2000842F861B18C0832F262F230F14C0862FC5
:101D3000830FE42F03C0E42FE61B842F432F2E2FA5
:101D40000AC0842F462F430F06C0842F242F03C0C0
:101D500080E020E040E0E42FF0E0E455F44F4491CF
:101D6000E22FF0E0E455F44F9491E82FF0E0E455D1
:101D7000F44FE49149839883EA83DF91CF911F91D7
:101D80000F91FF90EF90089588E090E00C94A932B5
:101D9000CF92DF92EF92FF926B017C010E94C40E02
:101DA0006C157D058E059F0551F0B701A60188E0F1
:101DB00090E0FF90EF90DF90CF900C94C732FF90AF
:101DC000EF90DF90CF900895EAE4F2E083E0808323
:101DD00010924B028FEF828380EF838314826081A5
:101DE0007181828193810C94C80E80914A0280FF98
:101DF00003C086958F73089580E0089580914E0208
:101E000090E001968430910514F083E090E0809397
:101E10004E0260914A0270914B0280914C02909167
:101E20004D020C94C80E80914E0290E0019797FFEE
:101E300002C080E090E08430910514F083E090E0EF
:101E400080934E0260914A0270914B0280914C0245
:101E500090914D020C94C80E80914A0280FF06C0FA
:101E600062E170E08FE492E00C94131580E090E062
:101E7000FC01E15BFD4F11821082128203968633D2
:101E80009105B1F7EDCF90914A0290FF0FC020E08D
:101E900030E0F901E15BFD4F8183608342832D5F78
:101EA0003F4F26333105A9F70C942C0F0895CF939B
:101EB000DF9300D01F92CDB7DEB720914A0220FFFA
:101EC0000AC09E012F5F3F4F0E944D0E4B816981DA
:101ED0008A810E94430F0F900F900F90DF91CF9156
:101EE00008955F926F927F928F929F92AF92BF926E
:101EF000CF92DF92EF92FF920F931F93CF93DF93D6
:101F000000D01F92CDB7DEB78C01E62EF42E522EF4
:101F100080914A0280FF89C0982F9E77923061F4A9
:101F20009E012F5F3F4FC8010E944D0E4B8169817A
:101F30008A810E94430F59C0E82FE695EF739EE314
:101F40009E0F9F73943018F4F0904D024EC09AE3A8
:101F50009E0F9F73993068F4881F8827881F90917F
:101F60004B02292F220F022F082B97FB112710F964
:101F70003CC087E28E0F8F738A30B8F5F0E0799716
:101F8000E0FD02C021E001C02FEFEE7FEE55F44FDF
:101F90008591949162E170E00E942A32260340010B
:101FA000279F900C1124580188E9A81A8EEFB80ACF
:101FB0008FE4C82E82E0D82E98E6692E7724739499
:101FC000C501B3010E942A3296014F2D6E2D0E9449
:101FD0004D0EA80CB91C83E0C80ED11C85E8C816AC
:101FE00082E0D80669F70E942C0F80914A0200FB1C
:101FF00087F980934A02902F969580914B028078C2
:10200000892B10FB87F980934B02E0924C02F092EF
:102010004D02552051F060914A0270914B0280911F
:102020004C0290914D020E94C80E0F900F900F909D
:10203000DF91CF911F910F91FF90EF90DF90CF90A4
:10204000BF90AF909F908F907F906F905F9008951A
:10205000282FEAE4F2E09081991F9927991F309187
:102060004B02832F880F482F492B37FB552750F9F8
:10207000CA01089668E671E00E943E32438162819F
:102080000C94710F81E00C942810282F90914A0233
:10209000991F9927991F30914B02832F880F482F42
:1020A000492B37FB552750F9CA01483051051CF41C
:1020B000805A9E4F01C0089768E671E00E943E3248
:1020C00040914D0260914C020C94710F81E00C9490
:1020D000451060914C02262F30E0283F310514F462
:1020E000685F01C06FEF30914A02331F3327331FFF
:1020F00090914B02592F550F97FB992790F9282F54
:1021000040914D02852F832B0C94710F81E00C942C
:10211000691060914C02262F30E02830310514F010
:10212000685001C060E030914A02331F3327331FEB
:1021300090914B02592F550F97FB992790F9282F13
:1021400040914D02852F832B0C94710F81E00C94EC
:10215000891040914D02242F30E0293E310514F4BE
:10216000485F01C040EF30914A02331F3327331FCD
:1021700090914B02592F550F97FB992790F9282FD3
:1021800060914C02852F832B0C94710F81E00C948D
:10219000A91040914D02242F30E02830310514F071
:1021A000485001C040E030914A02331F3327331FAB
:1021B00090914B02592F550F97FB992790F9282F93
:1021C00060914C02852F832B0C94710F81E00C944D
:1021D000C91020E00C94710FCF9390914A0290FFA8
:1021E00040C09178811102C0926007C0853210F022
:1021F000986403C08F73880F982B90934A026623CC
:1022000051F060914A0270914B0280914C02909182
:102210004D020E94C80EC0914A026C2F66956F73E2
:1022200070E04BE050E082E091E00E949432892B14
:1022300019F01092710103C081E080937101CC1FED
:10224000CC27CC1F90914B02892F880F97FB9927A1
:1022500090F940914D0260914C028C2BCF910C94DF
:10226000E910CF910895682F90914A0296959F7337
:1022700081E0890F853208F081E00C94EC1081E058
:102280000C943311682F90914A0296959F738FEFAB
:10229000890F09F484E20C94EC1081E00C94421153
:1022A00061E00C94EC10EAE4F2E0808181608083CC
:1022B00086958F730C94501160E00C94EC10809113
:1022C0001B02816080931B020E943521811104C092
:1022D0000E94B6210E94E40E0E94C40E60934A023E
:1022E00070934B0280934C0290934D026E7761F491
:1022F0000E94E40E0E94C40E60934A0270934B0247
:1023000080934C0290934D0281E080937101809103
:102310004A0280FF04C086958F730C945C11089567
:10232000EAE4F2E080818E7F808360817181828126
:1023300093810E94C80E109271012FEF80E792E006
:10234000215080409040E1F700C000000C942C0F19
:1023500080914A0280FD0C9490110C945311CF93FC
:10236000C82F80916F01909170010E94DD22EC2FA7
:10237000F0E0E256F44FE491F0E08E179F0708F486
:1023800043C00E94D1229093700180936F016091AD
:102390006E0170E080E090E00E941B3020E030E0B1
:1023A0004FE753E40E943E2F2BED3FE049E450E419
:1023B0000E9444310E94B1310E94B82F2BE43AE3CD
:1023C0004EE25FE30E94D12E20EF3BEF48ED52E456
:1023D0000E9444310E94EA2F462F80914A02881FB2
:1023E0008827881F90914B02292F220F97FB99274E
:1023F00090F960914C02822B0E94570F80916E01E0
:1024000090E0019680936E01CF910895CF93C82FED
:1024100080916C0190916D010E94DD22EC2FF0E023
:10242000E556F44FE491F0E08E179F07E8F00E9424
:10243000D12290936D0180936C0140914D02609187
:102440004C0280916A0190916B010E94570F80911C
:102450006A0190916B01019668E671E00E942A3250
:1024600090936B0180936A01CF910895CF92DF9290
:10247000FF920F931F93CF93DF93F82E8091680103
:10248000909169010E94DD22EF2DE695F0E0E8567B
:10249000F44FE491F0E08E179F07E8F10E94D122FB
:1024A00090936901809368010FE412E0C0E0D0E0EE
:1024B00088E6C82EDD24D39480916601909167014F
:1024C0008C0F9D1FB6010E942A32980140914D0247
:1024D00060914C020E944D0E64960D5F1F4FC836EE
:1024E00081E0D80749F70E942C0F209166013091B6
:1024F0006701F0FE0AC0C9010196BE010E942A329E
:10250000909367018093660106C021503109309392
:10251000670120936601DF91CF911F910F91FF908A
:10252000DF90CF900895AF92BF92CF92DF92EF925B
:10253000FF920F931F93CF93DF93C82F80FF02C0AA
:102540001FEF01C011E080916401909165010E942C
:10255000DD22C695EC2FF0E0EB56F44FE491F0E06D
:102560008E179F0708F466C00E94D12290936501E0
:10257000809364012FE4C22E22E0D22E31E5E32EB7
:1025800032E0F32EC0E0D0E0F70131971082F6017F
:102590001082F701108294E0A92EB12C00E0809106
:1025A0006301800F87FD8E5E082E000C990BC81703
:1025B000D907E9F480914D028A9DA0018B9D500DB1
:1025C0001124559547955595479580914A02881F46
:1025D0008827881F90914B02592F550F97FB9927F9
:1025E00090F9960160914C02852B0E944D0E010FCF
:1025F000F1E0AF1AB10899F6219683E0C80ED11C1C
:10260000E3E0EE0EF11CC231D10509F0BDCF0E940E
:102610002C0F80916301113031F4811102C081E1EE
:1026200007C0815005C090E00196BE010E943E3275
:1026300080936301DF91CF911F910F91FF90EF90F5
:10264000DF90CF90BF90AF9008950F931F93CF93DB
:10265000DF93C82F80916101909162010E94DD2279
:10266000EC2FF0E0EE56F44FE491F0E08E179F0768
:1026700008F466C00E94D1229093620180936101A8
:1026800080E090E0FC01E15BFD4F1182108212823C
:10269000039686339105B1F7C0E0D0E002E110E087
:1026A000CE01B8010E943E3240916001042E000C20
:1026B000550BFC01EE0FFF1FC417D5070CF140911D
:1026C0000101042E000C550B4C175D07CCF08E0F4A
:1026D0009F1F9C01215B3D4F80914A02881F8827E4
:1026E000881F90914B02592F550F97FB992790F90E
:1026F00040914D0260914C02852B0E944D0E07C007
:10270000E80FF91FE15BFD4F1182108212822196C2
:10271000C231D10529F60E942C0F809100019091C1
:102720006001980F9093600120910101280F209380
:102730000101121614F491311CF08195809300016F
:10274000DF91CF911F910F910895EF92FF920F9318
:102750001F93CF93DF9380915E0190915F010E9460
:10276000DD22883E9340D0F10E94D12290935F01F8
:1027700080935E01C0915C01D0915D012196C17092
:10278000DD27D0935D01C0935C018FE4E82E82E0E9
:10279000F82E10E008E7812F8695FE01E80FF11D65
:1027A000CF0181709927970140914D0260914C02B1
:1027B000FC010E9FC0010F9F900D11240E944D0E31
:1027C0001F5FF3E0EF0EF11C123129F7DF91CF917B
:1027D0001F910F91FF90EF900C942C0FDF91CF91F0
:1027E0001F910F91FF90EF900895CF93DF9300D04A
:1027F0001F92CDB7DEB780915A0190915B010E9484
:10280000DD22E0E9FBE02591349182179307C0F1C6
:102810008091590181110CC09E012F5F3F4F40EF05
:102820006FEF80E090E00E944D0E8A818093590105
:102830000E94D12290935B0180935A0180915801AC
:10284000813051F028F0823061F4409159010AC082
:102850008091590140E007C06091590140E080E05B
:1028600003C040E080E060E00E94430F8091580187
:1028700090E0019663E070E00E943E328093580140
:102880000F900F900F90DF91CF9108950F931F93AA
:10289000CF93DF9380915601909157010E94DD22E2
:1028A000843F914008F448C00E94D1229093570180
:1028B00080935601CFE4D2E000E010E02091540173
:1028C0003091550180914A0290914B0209301105D7
:1028D0001CF4232B79F002C0232B61F4881F882776
:1028E000881F592F550F97FB992790F99E0140910A
:1028F0004D020AC0881F8827881F592F550F97FB44
:10290000992790F99E0140E060914C02852B0E942E
:102910004D0E0F5F1F4F23960231110579F60E946D
:102920002C0F809154019091550101968170992747
:102930009093550180935401DF91CF911F910F9196
:102940000895809171018823D9F190914A02892FCD
:1029500086958F732EE3280F2F73243018F482503E
:102960000C94AF112AE3280F2F73233018F48650EC
:102970000C94061227E3280F2F73263018F4895081
:102980000C94361221E3280F2F73263018F48F5041
:102990000C9493122BE2280F2F73233018F48551D7
:1029A0000C942513892F8E77803311F40C94A51382
:1029B000863411F40C94F513883411F40C944614F5
:1029C00008952EB1342F309523233EB1432B3FB7CA
:1029D000F894FC01680F791FE617F70789F08191D9
:1029E00098E04EB9000000C087FF2EB9880F0000A4
:1029F00000C000C000C02EB900C09A9591F7ECCF7E
:102A00003FBF08952DB1242B2DB99B01220F331FF9
:102A1000620F731F0E94E11487EC90E00197F1F7B9
:102A200000C00000089544E00C94021590937701D3
:102A3000809376010895E0917601F09177013097C7
:102A400021F00190F081E02D099480E00895E0915B
:102A50007601F0917701309799F020911F012223A0
:102A600059F020918B0227FF07C0DC012C911196B1
:102A70002C93119725E02C930280F381E02D09948B
:102A80000895E0917601F0917701309739F022E0D6
:102A9000DC012C930480F581E02D099408952091A8
:102AA0007401309175018217930771F0909375014D
:102AB00080937401E0917601F0917701309721F0D5
:102AC0000680F781E02D09940895209172013091DC
:102AD00073018217930771F09093730180937201D1
:102AE000E0917601F0917701309721F00084F18533
:102AF000E02D0994089585B7806885BF85B7806803
:102B000085BF089508950E947B150C94821581E07D
:102B100008950E94C8220E942A0D0E949D230E94AF
:102B2000E7260C945F114F925F927F928F929F9253
:102B3000AF92BF92CF92DF92EF92FF920F931F93CB
:102B4000CF93DF93CDB7DEB72A970FB6F894DEBFE9
:102B50000FBECDBF0E94740D0E948715811111C058
:102B60008FEF89838A831B820E94D1228160782F14
:102B70009D838C8349815A816B818D810E9451167E
:102B800057C099E7C92E91E0D92E00E010E0AA24A1
:102B9000A394B12C702E802F0E940C0E4C01F601D4
:102BA000419051906F01482659264114510431F447
:102BB0000F5F1F4F0530110569F7D2CF80911B02BF
:102BC00081FD0E94150E20E030E07501022E02C04A
:102BD000EE0CFF1C0A94E2F7C70184219521892B92
:102BE00009F12E837F828E209F2091E0892809F4AD
:102BF00090E098870E94D1228160782F9A878987F8
:102C00004E815F8168858A850E945116000F111FD1
:102C1000F801E758FE4F80819181E826F926F1827C
:102C2000E08206C02F5F3F4F2031310571F6C0CFE3
:102C30000E944026109178010E941B151817D9F0A8
:102C40000E941B15809378012A960FB6F894DEBF78
:102C50000FBECDBFDF91CF911F910F91FF90EF90ED
:102C6000DF90CF90BF90AF909F908F907F905F90BC
:102C70004F900C94E8072A960FB6F894DEBF0FBE6B
:102C8000CDBFDF91CF911F910F91FF90EF90DF901B
:102C9000CF90BF90AF909F908F907F905F904F901C
:102CA0000895CF93DF93CDB7DEB72B970FB6F89487
:102CB000DEBF0FBECDBF4F83588769877A878B876A
:102CC000DE01119686E0FD0111928A95E9F785E013
:102CD000FE01379601900D928A95E1F749815A815C
:102CE0006B817C818D819E810E949D1D2B960FB6EC
:102CF000F894DEBF0FBECDBFDF91CF910895FC01E8
:102D0000808191810E9467200895882309F41AC167
:102D10008238C1F40E941B1581FD14C169E38091C2
:102D20000D0190910E010E941D220E94C6202FEFDE
:102D300081EE94E0215080409040E1F700C0000017
:102D400069E319C08338F9F40E941B1580FDFAC0AD
:102D500063E580910D0190910E010E941D220E9459
:102D6000C6202FEF81EE94E0215080409040E1F7A3
:102D700000C0000063E580910D0190910E010E945A
:102D800028220C94C6208438C1F40E941B1582FDB1
:102D9000D9C067E480910D0190910E010E941D221F
:102DA0000E94C6202FEF81EE94E021508040904099
:102DB000E1F700C0000067E4DECF9CEF980F913A86
:102DC00040F4682F80910D0190910E010E941D2208
:102DD000D8CF90E2980F983050F4877091E001C0FE
:102DE000990F8A95EAF7892F0E94FC20CACF9BE5AC
:102DF000980F933070F4853A29F0863A31F083E8E1
:102E000090E005C081E890E002C082E890E00C9478
:102E10004F1598E5980F973108F08EC0883A09F45D
:102E200045C0893A09F445C08A3A09F445C08B3A4D
:102E300009F445C08C3A09F445C08B3B09F445C000
:102E40008C3B09F445C08D3A09F445C0803B09F438
:102E500045C08E3A09F445C08F3A09F445C0813B1C
:102E600009F445C0823B09F445C0833B09F445C0E1
:102E7000843B09F445C0853B09F445C0863B09F411
:102E800045C0873B09F445C0883B09F445C0893BF0
:102E900009F445C08D3B09F445C08E3B09F445C09B
:102EA0008A3B09F445C080E090E044C082EE90E0A7
:102EB00041C089EE90E03EC08AEE90E03BC085EBD9
:102EC00090E038C086EB90E035C083EB90E032C0F4
:102ED00084EB90E02FC087EB90E02CC08CEC90E06E
:102EE00029C08DEC90E026C083E891E023C08AE8F9
:102EF00091E020C082E991E01DC084E991E01AC010
:102F000081E292E017C083E292E014C084E292E092
:102F100011C085E292E00EC086E292E00BC087E22B
:102F200092E008C08FE690E005C080E790E002C024
:102F30008AE292E00C946515803F20F00E944825BB
:102F40000C9435260895882309F464C0823879F4F6
:102F50000E941B1581FF5EC069E380910D01909175
:102F60000E010E941D220E94C62069E310C0833812
:102F7000B1F40E941B1580FF4DC063E580910D01E7
:102F800090910E010E941D220E94C62063E580914F
:102F90000D0190910E010E9428220C94C6208438C5
:102FA00079F40E941B1582FF35C067E480910D0102
:102FB00090910E010E941D220E94C62067E4E7CF77
:102FC0009CEF980F913A10F4682FE1CF90E2980FA0
:102FD000983050F4877091E001C0990F8A95EAF714
:102FE000892F0E940221D9CF9BE5980F933020F4BE
:102FF00080E090E00C944F1598E5980F973120F4FD
:1030000080E090E00C946515803F20F00E94B02590
:103010000C9435260895882321F00E94FC200C94FE
:10302000C6200895882321F00E9402210C94C62016
:1030300008954F925F926F927F92BF92CF92DF92EC
:10304000EF92FF920F931F93CF93DF937C01D62FC4
:10305000C72FFC01058102950F70128111110E948A
:1030600019210E94BF20882379F0112369F080E2A2
:103070008D0F883048F082E00E94A8200E94BF2077
:1030800091E0B82EB92601C0B12CCC2EC2948FE0AD
:10309000C822D12CF601E859FF4F0C9474328C2FC2
:1030A000807FCF70882311F0C295C07F112399F0E3
:1030B000CC2309F4D0C180E28D0F883010F0D111FB
:1030C00004C08C2F0E94FC2003C08C2F0E940C2176
:1030D0000E94C620C0C18D2F0E94A317CC2309F4E3
:1030E00003C280E28D0F883010F0D11104C08C2F04
:1030F0000E94022103C08C2F0E9412210E94C62030
:10310000F3C18C2F807FCF70803211F0C295C07FC9
:10311000DD2319F0D130C9F022C0112371F0002352
:1031200041F0013031F40E9432218C2B0E942C217D
:10313000DBC10E9432218C2B46C1002319F00130E3
:1031400009F4D2C10E942F2118C0112321F00630AA
:1031500008F0CAC10EC0053008F0C6C10EC0112368
:1031600051F0002331F0F701858180FF74C18F7029
:1031700085838C2F28C101117FC18C2F2AC18C2FF0
:1031800086958695837090E0009719F0019761F01D
:10319000ABC1112321F08D2F9C2F937002C080E0D2
:1031A00090E00E944F15B0C1112321F08D2F9C2F6C
:1031B000937002C080E090E00E946515A5C11123C4
:1031C000F9F0D53F51F0D63F71F0D43FA9F480918A
:1031D00085029091860281600BC08091850290915A
:1031E0008602826005C0809185029091860284608B
:1031F00090938602809385028D2F0E9448251EC0E1
:10320000D53F51F0D63F71F0D43FA9F480918502AB
:10321000909186028E7F0BC08091850290918602EC
:103220008D7F05C080918502909186028B7F90935F
:103230008602809385028D2F0E94B0250E9435263C
:1032400063C18C2F837009F050C0111159C18D2FAB
:10325000829586958770880F880F9D2F9F70492EC5
:10326000512C612C712C082E04C0440C551C661C7A
:10327000771C0A94D2F7D4FF14C00FE010E020E0CE
:1032800030E0B901A80104C0440F551F661F771F25
:103290008A95D2F7CB01BA0160957095809590958B
:1032A00003C060E070E0CB01C695C695C370D0E066
:1032B000C230D10561F0C330D10581F06429752990
:1032C00086299729219771F00E94E21E19C164296D
:1032D0007529862997290E94F41E12C10E94E21EB8
:1032E000C301B2010E94D01E0BC1112319F08C2F13
:1032F000817001C08695882309F402C18D2F8295C3
:1033000086958770880F880F9D2F9F70492E512CAE
:10331000612C712C082E04C0440C551C661C771CB3
:103320000A94D2F7D4FF14C00FE010E020E030E0A0
:10333000B901A80104C0440F551F661F771F8A9565
:10334000D2F7CB01BA01609570958095909503C036
:1033500060E070E0CB01C695C695C3704C2F50E07D
:103360004230510569F04330510589F064297529CF
:10337000862997294130510571F00E94A81FC0C0CD
:1033800064297529862997290E94BA1FB9C00E940D
:10339000A81FC301B2010E94961FB2C08D2F90E0FA
:1033A000FC01E05EF109E531F10508F050C0E85894
:1033B000FF4F0C947432DF708C2F8F71112331F01A
:1033C0000E942F1F8D2F0E940B188EC00E94501F2D
:1033D0008D2F0E94121888C0112341F0053008F08B
:1033E00083C08C2F8F710E94751F7EC0063008F03D
:1033F0007BC0F7CF112339F08C2F8F710E942F1FC4
:1034000073C01123C9F38C2F8F710E94501F6CC0A1
:10341000112329F08C2F8F710E941A1F65C00E9402
:10342000151F62C0112349F0CF718C2F0E942F1FEE
:1034300063E08C2F0E949F2057C081E00E94A8204B
:10344000023008F451C082E00E94A8204DC0112330
:1034500031F0002389F28D2F0E94851645C000238C
:1034600091F2D93349F45FEF67EE73E05150604059
:103470007040E1F700C000008D2F0E94A31734C0F8
:103480004C2F4F706D2FC7010E945C070E94411E98
:103490003BC0111139C0CF70D0E0C230D10599F0D6
:1034A0003CF4209769F02197F9F40E9421272CC061
:1034B000C430D10571F054F02597B1F480E00AC012
:1034C0000E94042721C00E9460271EC00E94672717
:1034D0001BC083E00E948A2717C04C2F4F706D2FAE
:1034E000C7010E94780A10C088E0C816D10441F0D4
:1034F0005CF0EAE0CE1AD108F2E0CF16D10420F455
:103500000E941B150E94E807BB20F1F00E949B203F
:1035100080FD1AC0F70112820E9495200E942F1F81
:10352000C7010E94B21A0E949520DF91CF911F918E
:103530000F91FF90EF90DF90CF90BF907F906F90B2
:103540005F904F900C94501FDF91CF911F910F917E
:10355000FF90EF90DF90CF90BF907F906F905F9043
:103560004F9008950F931F93CF93DF93EC018881C1
:1035700099812B813C81232BB9F09F3F11F48F3F20
:1035800099F0CE010E94FA07882371F06881798151
:103590008A810E9472208C010E94CC1F0E94CD1E45
:1035A000B801CE010E941918DF91CF911F910F91A0
:1035B00008950E9419210E9429210E94C6200E947C
:1035C000DB260E94352680E090E00E944F1580E0C7
:1035D00090E00C94651580910D0190910E010E9470
:1035E00033220C94D91A0E9409210C94EB1AE92F6A
:1035F000E295EF70F0E03297EE30F105B0F4E3576A
:10360000FF4F0C947432803F91F018F4803E68F4C0
:103610000EC0843F51F40BC0803E48F0813F29F436
:1036200006C093FB882780F9089580E0089581E023
:1036300008950E9467200E94F71A0895CF93DF93A0
:1036400000D000D01F92CDB7DEB70F900F900F9033
:103650000F900F90DF91CF910895CF93DF9300D01B
:1036600000D000D0CDB7DEB726960FB6F894DEBFF7
:103670000FBECDBFDF91CF9108951F93CF93DF93FE
:10368000C091840116E080918501C81799F0D0E0BF
:103690001C9FF0011D9FF00D1124EA57FE4F408141
:1036A000518162817381848195810E942D1B2196B5
:1036B000C770E9CFDF91CF911F9108954091B60176
:1036C0005091B7016091B8017091B9018091BA0130
:1036D0009091BB010C942D1B8091BB0182958F7042
:1036E00009F054C08091B801882309F44FC080913B
:1036F0008401A09185016091B6017091B70140915C
:10370000B9015091BA01B6E08A1709F43FC090E0C0
:1037100041155105C1F17F3F11F46F3FA1F1B89FF1
:10372000F001B99FF00D1124EA57FE4F2181721369
:103730002AC02081621327C02281211124C0238145
:1037400034812417350710F421503109241B350B1F
:10375000283C3105C0F42091BB012F7020612093DB
:10376000BB0126E0289FF001299FF00D1124E557A9
:10377000FE4F80818F708061808386EB91E00E9494
:10378000B21A0C943D1B01968770BECF0895CF925C
:10379000DF92EF92FF920F931F93CF93DF93CDB7FA
:1037A000DEB762970FB6F894DEBF0FBECDBF8C01B7
:1037B00085E0F801DE011D9601900D928A95E1F7F2
:1037C000D8014C9111965C91119712966C911297B9
:1037D0001396CD90DC9014973091B6017091B7019B
:1037E0008091B9019091BA01009709F46BC17F3FB4
:1037F00019F43F3F09F466C1E090B801EE2009F4E6
:10380000C0C02091BB01C816D90628F0F601E81BFC
:10381000F90BCF0104C0809590958C0D9D1DFF2460
:10382000F394883C910578F0F12C207F09F0C6C014
:103830007C2DD98AC88A89890E941E1B86EB91E05B
:103840000E94B21AB1C0822F807F09F046C0751362
:1038500014C0341312C0611110C02F702061209366
:10386000BB010E945E1B86EB91E00E94B21A809120
:10387000BB01D80115968C932EC0CD2819F15F3F5E
:1038800011F44F3FF9F0F62E61111CC080918401B4
:103890002091850136E0821709F45AC090E0389FE4
:1038A000F001399FF00D1124EA57FE4F7181571333
:1038B00006C07081471303C07281711103C0019665
:1038C0008770E9CFF62E662309F427C18091BB01EA
:1038D00081608093BB01F12C20C1751308C03413A3
:1038E00006C0611104C08091BB01D801C3C04D87DF
:1038F0005E878D859E856A8B0E94191B6A89882345
:10390000E1F16623D1F12091BB01822F82958F7066
:1039100090E0029774F08091B6019091B70198877A
:103920008F831986DB86CA862C87CE0107960E9474
:10393000B21A86E0F801A6EBB1E001900D928A95EB
:10394000E1F70E946C1B0E945E1BFF24F394E5C00C
:103950004D875E878D859E850E946720292F229541
:103960002F7030E0223031050CF0CBC09F7009F091
:10397000C5C0805E883008F4D0C0C8010E94B21A69
:10398000E4CFC816D90608F453C0F601E81BF90BBA
:10399000CF01883C910508F450C0F12C7C2DD98AC8
:1039A000C88A89890E941E1BE6EBF1E086E0DF01F0
:1039B0001D928A95E9F70E945E1BAFC0751314C073
:1039C000341312C0611110C08091BB01F8018583CE
:1039D000C8010E94B21A86E0E6EBF1E0DF011D9219
:1039E0008A95E9F7FE2C99C04D875E878D859E8567
:1039F0006A8B0E94191B6A89882309F4BECF66234B
:103A000009F4BBCF2091BB01822F82958F7090E08B
:103A100002970CF48ECF8091B6019091B7019A83F2
:103A200089831B82DD82CC822E83CE0101967FCFDB
:103A3000809590958C0D9D1DACCFF62E662309F4D4
:103A40009CCF75132EC034132CC02091BB0120FDD8
:103A50001FC0822F82958F70D9F0D80115962C93B4
:103A600015978F3049F08F5F982F9295907F822F16
:103A70008F70892B15968C93C8010E94B21A86E02C
:103A8000F801A6EBB1E001900D928A95E1F793CF92
:103A900086E0F801A6EBB1E001900D928A95E1F77E
:103AA0003CC04D875E878D859E850E94191B8111C4
:103AB00040CF8091BB0181608093BB01C8010E940F
:103AC000B21A2BC0662309F458CF4D875E878D85C7
:103AD0009E850E94191BF82E882309F44ECF86E09C
:103AE000F801A6EBB1E001900D928A95E1F786EB23
:103AF00091E00E947F160E946C1B5DCF811139CF2F
:103B00000CC0243031050CF038CF9F7009F431CF50
:103B1000F8019581907F09F02CCF8F2D62960FB61A
:103B2000F894DEBF0FBECDBFDF91CF911F910F91F3
:103B3000FF90EF90DF90CF9008951F93CF93DF9386
:103B4000CDB7DEB72C970FB6F894DEBF0FBECDBF52
:103B50004F83588769877A878B879C87CE01079622
:103B60000E94C71B882369F08F8198852A853B8531
:103B7000232BF1F19F3F09F063C08F3F09F060C034
:103B800037C086E0FE013796DE01119601900D9256
:103B90008A95E1F76F817885EA85FB85309741F159
:103BA0007F3F11F46F3F21F12091850130E0C90181
:103BB0000196877099274091840150E084179507FA
:103BC00009F447C069837A83FD83EC8396E0929F72
:103BD000D001939FB00D1124AA57BE4FFE0131961C
:103BE00001900D929A95E1F7809385010E943D1B0B
:103BF00016E080918401909185018917C1F1189F89
:103C0000C00111248A579E4F0E94C71B882379F157
:103C1000E09184011E9FF0011124EA57FE4F40817C
:103C2000518162817381848195810E942D1B8091D5
:103C3000840190E001968770992780938401D9CF01
:103C40004F81588569857A858B859C850E942D1BBF
:103C5000CFCF0E94F31A1092850110928401E6EBF7
:103C6000F1E086E0DF011D928A95E9F7C1CF2C963D
:103C70000FB6F894DEBF0FBECDBFDF91CF911F917D
:103C80000895EF92FF920F931F93CF93DF938C01D0
:103C9000892B09F46CC0F12CEE24E394E801219601
:103CA000F8018491843740F4843008F051C08130A9
:103CB00081F0823019F15BC0853709F444C0A8F166
:103CC0009CE7980F903708F052C08F770E94A31797
:103CD00041C00E5F1F4FFE01C49180E28C0F8830FF
:103CE00048F4C7708E2D01C0880FCA95EAF70E946C
:103CF0001C2114C08C2F0E9485162DC00E5F1F4FF3
:103D0000FE01C49180E28C0F883058F4C7708E2D6C
:103D100001C0880FCA95EAF70E9422210E94C6209E
:103D20001AC08C2F0E94A31716C00E5F1F4FFE01F2
:103D3000C491CC2381F08FE99FE00197F1F700C097
:103D40000000C150F6CF0E5F1F4FFE01F49003C07C
:103D50000E9485168E018F2D882309F49FCFEFE9ED
:103D6000FFE03197F1F700C000008150F5CFDF91FF
:103D7000CF911F910F91FF90EF90089508950C94AB
:103D8000BE1E0E94BF1E6093F2017093F3018093E8
:103D9000F4019093F5010C94D91A08950C94C11E66
:103DA0000F931F930091F2011091F3012091F40100
:103DB0003091F501602B712B822B932B1F910F916A
:103DC0000C94C11E0F931F930091F2011091F30107
:103DD0002091F4013091F501602371238223932314
:103DE0001F910F910C94C11E0F931F930091F2012C
:103DF0001091F3012091F4013091F50160277127B2
:103E0000822793271F910F910C94C11E08950C9443
:103E1000061F0E94071F6093EE017093EF018093CD
:103E2000F0019093F1010C94D91A60E070E0CB019D
:103E30000C94091F0F931F9341E050E060E070E085
:103E40008A019B0104C0000F111F221F331F8A9596
:103E5000D2F7C901B8011F910F910C94091F0F935C
:103E60001F9341E050E060E070E004C0440F551F34
:103E7000661F771F8A95D2F78091EE019091EF012E
:103E8000A091F001B091F1018A019B01082B192B3F
:103E90002A2B3B2BC901B8011F910F910C94091FCC
:103EA0000F931F9341E050E060E070E004C0440FC6
:103EB000551F661F771F8A95D2F7409550956095DC
:103EC00070958091EE019091EF01A091F001B09179
:103ED000F1018A019B01082319232A233B23C901ED
:103EE000B8011F910F910C94091F0F931F9341E08C
:103EF00050E060E070E004C0440F551F661F771F5C
:103F00008A95D2F78091EE019091EF01A091F00196
:103F1000B091F1018A019B01082719272A273B2725
:103F2000C901B8011F910F910C94091F0F931F93A2
:103F30000091EE011091EF012091F0013091F1011B
:103F4000602B712B822B932B1F910F910C94091FC7
:103F50000F931F930091EE011091EF012091F0015A
:103F60003091F10160237123822393231F910F91DC
:103F70000C94091F0F931F930091EE011091EF0114
:103F80002091F0013091F10160277127822793275A
:103F90001F910F910C94091F089520E1929F800DAD
:103FA0001124A82FA695A695A695877051E001C06B
:103FB000550F8A95EAF785E0A89FD001112420E0EB
:103FC00030E070E0F901EA0FFB1FE454FE4F40813E
:103FD000CB01022E02C0969587950A94E2F7817074
:103FE0009927819584278523842780832F5F3F4FDE
:103FF0002530310539F7089520E1929F800D112475
:10400000682F669566956695982F977085E0689FEE
:10401000B001112440E050E080E0FA01E60FF71F04
:10402000E454FE4F208130E0092E02C036952795DA
:104030000A94E2F721703327042E01C0220F0A945C
:10404000EAF7822B4F5F5F4F4530510531F70895F6
:10405000CF92DF92EF92FF920F931F93CF93DF9354
:104060008C01C090F201D090F301E090F401F09047
:10407000F5018091EE019091EF01A091F001B091D6
:10408000F101C82AD92AEA2AFB2ACFE1D0E0D701D8
:10409000C6010C2E04C0B695A795979587950A94EE
:1040A000D2F780FF06C0B8018C2F0E94960A0197B4
:1040B00021F4219760F780E001C08C2FDF91CF9130
:1040C0001F910F91FF90EF90DF90CF900895CF93C5
:1040D000DF93EC010E942820BE010E94960ADF9126
:1040E000CF9108951F93CF93DF93EB0190918301BC
:1040F000992321F0CB010E94672013C0882349F047
:10410000CB010E942820182F682FCE010E94CD1FBE
:1041100004C0CB010E94FC1F182FBE01812F0E94FA
:10412000960ADF91CF911F9108958091F6018595B0
:104130008595859508958091F6018770089598E09A
:10414000899F90011124262B2093F6010C942F1F98
:104150002091F601809582238093F601982F977025
:1041600069F430E0482F082E000C550B2417350752
:1041700029F08595859585950C94501F089590910B
:10418000F601977081E009F480E00895E0910D0157
:10419000F0910E0180911A028083E0910D01F0915F
:1041A0000E01908180911902892B8083E0910D018D
:1041B000F0910E01908180911802892B808380916B
:1041C000F701882381F0E0910D01F0910E019081BB
:1041D000892B808380910D0190910E010E94B8215E
:1041E00081111092F70180910D0190910E010C94B4
:1041F000271580911A02089590911A02892B8093B5
:104200001A020895809590911A02892380931A02C8
:10421000089510921A02089590911902892B8093A3
:1042200019020895809590911902892380931902AB
:10423000089510921902089590911802892B809385
:10424000180208958095909118028923809318028E
:1042500008951092180208958093F701089510921E
:10426000F70108958091F701089580E090E00E94A1
:10427000AF3221E08D3E9E4F09F020E0822F08955D
:1042800082E090E00C94A132682F82E090E00C94E0
:10429000B53283E090E00C94A132682F83E090E087
:1042A0000C94B53284E090E00C94A132682F84E045
:1042B00090E00C94B53286E090E00C94A132682F27
:1042C00086E090E00C94B532AB01BC018FE090E049
:1042D0000C94C732AB01BC0183E190E00C94C7326F
:1042E00060E070E0CB010C946A2160E070E0CB01EB
:1042F0000E9464210C9470216DEE7EEF80E090E0CE
:104300000E94D33260E082E090E00E94B53260E02B
:1043100083E090E00E94B5321092F2011092F30116
:104320001092F4011092F50160E084E090E00E94A8
:10433000B53260E085E090E00E94B53260E086E052
:1043400090E00E94B5326FEF87E090E00E94B532B6
:1043500040E050E0BA0188E090E00E94C73260E09F
:104360008DE090E00E94B5320C9475210C947C2174
:10437000FC01329680911F01882331F080918B02DD
:1043800087FF02C09EE101C096E080E0915028F0D6
:1043900021912223D9F38F5FF9CF08959C01FC016D
:1043A00032969FEF80E04191461789F09F3F19F4C4
:1043B000411101C0982F8F5F8630A9F79F3F39F0D8
:1043C000F901E90FF11D97FDFA95628308950895AB
:1043D000FC01329608962081261301C01082319686
:1043E000E817F907C1F70895262F269526952695F3
:1043F0002E3168F4FC01E20FF11D677021E030E01E
:1044000001C0220F6A95EAF78281282B2283089542
:10441000262F2695269526952E3170F4FC01E20F65
:10442000F11D677021E030E001C0220F6A95EAF7C4
:104430002095828128232283089520911F01222321
:1044400029F020918B0227FD0C94F4210C94CE21AD
:1044500020911F01222329F020918B0227FD0C942B
:1044600008220C94E82120911F01FC01329622239E
:1044700031F080918B0287FF02C08EE101C086E09F
:10448000DF011D928A95E9F7089508950C9445225D
:104490000E94462280919202843061F110921C02A7
:1044A00020E488E190E00FB6F894A895809360002E
:1044B0000FBE2093600080E00E94700780E00E94A1
:1044C000E8070E94462283B7817F846083BF83B759
:1044D000816083BF7894889583B78E7F83BF0FB642
:1044E000F894A89580916000886180936000109294
:1044F00060000FBE089508950895CF930E947B2217
:104500000E94740D0E947C22C0E08C2F0E940C0E31
:10451000892B29F4CF5FC530C1F780E001C081E06D
:10452000CF91089508950C9492220E94F31A0E944C
:10453000E7260E941B150E94E8070C9493221F9205
:104540000F920FB60F9211248F939F93AF93BF9347
:1045500080911C02811113C0809187029091880282
:10456000A0918902B0918A024196A11DB11D80934C
:10457000870290938802A0938902B0938A02BF9128
:10458000AF919F918F910F900FBE0F901F90189534
:1045900082E084BD93E095BD9AEF97BD80936E0055
:1045A00008952FB7F8948091870290918802A09186
:1045B0008902B0918A022FBF0895CF92DF92EF92C5
:1045C000FF920F931F932FB7F89440918702509159
:1045D00088026091890270918A022FBF6A017B0173
:1045E000EE24FF248C0120E030E0C016D106E20664
:1045F000F30610F4415051099A01281B390BC901E7
:104600001F910F91FF90EF90DF90CF9008957894D5
:104610001F920F920FB60F9211248F939F93AF9317
:10462000BF938091870290918802A0918902B091F6
:104630008A020196A11DB11D809387029093880282
:10464000A0938902B0938A02BF91AF919F918F91FD
:104650000F900FBE0F901F90189581E08093E0009F
:1046600080E28093D8001092C9008FE19EE4019708
:10467000F1F700C0000087E090EBDC0180939B0223
:1046800090939C02A0939D02B0939E029CE088E1CF
:104690000FB6F894A895809360000FBE90936000C9
:1046A000FFCFAF92BF92CF92DF92EF92FF920F9324
:1046B0001F93CF93C0E0CC24C394D12CE82EF12CCF
:1046C0008C2F0E940C0E5C0100E010E09601002E81
:1046D00002C0220F331F0A94E2F72A213B21232B29
:1046E00031F40F5F1F4F0031110581F70AC0602FB1
:1046F0007C2F80E00E94790AE816F90691F781E0A4
:1047000004C0CF5FC530E1F680E0CF911F910F91DB
:10471000FF90EF90DF90CF90BF90AF900895CF9330
:10472000C82F8CE20E945123882321F08C2FCF9137
:104730000C94512380E0CF910895CF930E943521AE
:10474000811102C00E94B621C5E6C15049F00E9405
:10475000740D8FE39CE90197F1F700C00000F5CFDD
:1047600089E20E948F2381110FC18AE20E948F2368
:1047700081110E94B62185E00E948F2381110E9441
:104780002D230E94402180931B0287E00E948F23EB
:104790008823A9F18BE10E948F23882351F0809117
:1047A0001B0281FB222720F991E0922790FB81F9DF
:1047B0000EC08EE00E948F23882361F080911B023F
:1047C00082FB222720F991E0922790FB82F98093C7
:1047D0001B0215C080E10E948F2390911B02882349
:1047E00041F093FB222720F981E0822780FB93F997
:1047F00004C0892F809580FB90F990931B028091D3
:104800001B020E9444210E94522190E090938C024E
:1048100080938B0280EE0E948F23882341F0809149
:104820008B02982F909590FB80F980938B0289E3FF
:104830000E948F23882359F080918B0281FB2227CD
:1048400020F991E0922790FB81F980938B0282EE10
:104850000E948F23882359F080918B0282FB2227AC
:1048600020F991E0922790FB82F980938B0286EEEB
:104870000E948F23882359F080918B0283FB22278B
:1048800020F991E0922790FB83F980938B0283EECD
:104890000E948F23882359F080918B0284FB22276A
:1048A00020F991E0922790FB84F980938B0285E3B5
:1048B0000E948F23882359F080918B0285FB222749
:1048C00020F991E0922790FB85F980938B0281E398
:1048D0000E948F23882359F080918B0286FB222728
:1048E00020F991E0922790FB86F980938B0281E179
:1048F0000E948F23882359F080918B0287FB222707
:1049000020F991E0922790FB87F980938B028091A8
:104910008B020E94562187E20E948F23C82F8EE1CE
:104920000E948F238111C2608FE10E948F23811129
:10493000C46080E20E948F238111C86081E20E94DE
:104940008F238111C06182E20E948F238111C06296
:1049500083E20E948F238111C06484E20E948F232E
:10496000882311F0C06802C0CC2329F08C2F0E944C
:104970004D216C2F03C00E944921682F70E080E018
:1049800090E0CF910C94CE1ECF91089580911F029C
:1049900080FF0BC06091120185E0689FB001112477
:1049A00075956795759567952BC081FF09C06091D6
:1049B000120185E0689FB00111247595679520C0AC
:1049C00082FF07C06091120185E0689FB001112449
:1049D00017C0909120029923D1F060911101961790
:1049E00088F72091120185E0289F90011124929F61
:1049F000A001939F500D112470E0CA010E943E3225
:104A00006038710540F46115710539F002C065E048
:104A100070E0862F08958FE7089581E008958091D2
:104A20001F0280FF08C06091100170E075956795C6
:104A30007595679521C081FF06C06091100170E0F7
:104A40007595679519C082FF04C06091100170E0F0
:104A500010C0909120029923C1F060910F01961728
:104A6000A0F780911001899FC001112470E00E947D
:104A70003E326038710528F46115710521F0862FEA
:104A800008958FE7089581E0089561E070E0F4CF24
:104A9000803F21F40E94C624819504C0813F29F4FF
:104AA0000E94C624809324020895823F21F40E942C
:104AB000C624819504C0833F29F40E94C6248093B4
:104AC00023020895893F19F40E940F2505C08A3FEB
:104AD00031F40E940F2581958093250208958B3F24
:104AE00021F40E940F25819504C08C3F29F40E9477
:104AF0000F25809326020895843F21F4809122029D
:104B0000816017C0853F21F480912202826011C02C
:104B1000863F21F48091220284600BC0873F21F4FC
:104B200080912202886005C0883F31F48091220282
:104B300080618093220208958D3F21F480911F02AD
:104B400081600BC08E3F21F480911F02826005C0FE
:104B50008F3F29F480911F02846080931F02089583
:104B6000803F39F48091240287FF6CC010922402A8
:104B700069C0813F29F4809124021816BCF362C0F9
:104B800090912302823F29F497FF5CC01092230288
:104B900059C0833F19F41916CCF354C0893F41F42E
:104BA0008091250218160CF04DC0109225024AC0C3
:104BB0008A3F29F48091250287FF44C0F6CF8B3FBE
:104BC00039F48091260287FF3DC0109226023AC038
:104BD0008C3F29F4809126021816BCF333C0843F21
:104BE00021F4809122028E7F17C0853F21F48091AD
:104BF00022028D7F11C0863F21F4809122028B7F9B
:104C00000BC0873F21F480912202877F05C0883F37
:104C100031F4809122028F7E8093220213C08D3F57
:104C200021F480911F028E7F0BC08E3F21F4809172
:104C30001F028D7F05C08F3F29F480911F028B7F5B
:104C400080931F028091230281110EC08091240263
:104C500081110AC080912502811106C0809126022F
:104C6000811102C010922002089581E292E00E9418
:104C700041150E94D12290931E0280931D02089537
:104C80001F93CF93DF9380911D0290911E020E948B
:104C9000DD22AC0190912002992321F02091130193
:104CA00030E006C0209114018AE0289F9001112471
:104CB0004217530708F47BC080912302C09124025D
:104CC000D091250210912602811107C0C1116BC03D
:104CD000D11169C0111167C06AC09F3F19F09F5F71
:104CE00090932002181624F40E94C6248093230275
:104CF0008091230287FF05C00E94C624819580937E
:104D000023021C1624F40E94C6248093240280915E
:104D1000240287FF05C00E94C62481958093240247
:104D2000309123023323E1F0209124022223C1F0A9
:104D300045EB3403C0011124892F990F990B00977B
:104D400009F481E08093230235EB2303C001112491
:104D5000892F990F990B009709F481E08093240221
:104D60001D1624F40E940F258093250280912502B0
:104D700087FF05C00E940F2581958093250211169B
:104D800024F40E940F25809326028091260287FF3B
:104D900005C00E940F25819580932602DF91CF9157
:104DA0001F910C9435269F3F09F099CFA1CFDF9139
:104DB000CF911F910895E1E2F2E086E0DF011D92BC
:104DC0008A95E9F71092200210921F0208950E941E
:104DD0003521811102C00E94B6210E945B2180937F
:104DE0008D02282F269530E02430310524F0817083
:104DF000866080938D0280918D0280FF02C086952F
:104E000001C080E00C94700720918D02822F86955E
:104E1000482F50E04330510544F48F5F982F990F8D
:104E2000822F8170892B80938D0280918D02816009
:104E300080938D020E945F2180918D0286950C9453
:104E4000700780918D02982F969591F09158990F47
:104E50008170892B80938D028E7F91E009F490E020
:104E600080918D0290FB80F980938D020E945F21DA
:104E700080918D0286950C94700780918D0280FD43
:104E800011C0816080938D02813019F483E080939A
:104E90008D0280918D020E945F2180918D02869506
:104EA0000C947007089580918D0280FF08C08E7F5A
:104EB00080938D020E945F2180E00C94700708951A
:104EC00080918D0280FD0C9453270C943D27909186
:104ED0008D02892F86958F5F8F779170843028F4AB
:104EE000880F892B80938D0202C090938D02809150
:104EF0008D028E7F91E009F490E080918D0290FB0D
:104F000080F980938D020E945F2180918D028695A9
:104F10000C947007843008F083E0880F90918D0224
:104F20009170892B80938D028E7F91E009F490E03F
:104F300080918D0290FB80F980938D020E945F2109
:104F400080918D0286950C94700780914702089598
:104F50000F931F93CF93DF9300D01F92CDB7DEB78F
:104F60008C010E94182A823011F0843021F584E0EF
:104F700089831B830A8382E08093E9008FEF9091FD
:104F8000E800815095FD06C095ED9A95F1F7000077
:104F90008111F5CF8091E80085FF0DC040E050E021
:104FA00063E070E0CE0101960E94352A8091E8000E
:104FB0008E778093E8000F900F900F90DF91CF9144
:104FC0001F910F910895CF93DF9300D01F92CDB71B
:104FD000DEB720919202243031F523E029838058F6
:104FE00091099B838A8382E08093E9008FEF9091FF
:104FF000E800815095FD06C095ED9A95F1F7000007
:105000008111F5CF8091E80085FF0DC040E050E0B0
:1050100063E070E0CE0101960E94352A8091E8009D
:105020008E778093E8000F900F900F90DF91CF91D3
:105030000895CF93DF93EC010E94182A823011F07B
:105040008430F9F482E08093E9009FEF8091E800DA
:10505000915085FD06C085ED8A95F1F7000091110C
:10506000F5CF8091E80085FF0CC040E050E066E09D
:1050700070E0CE010E94352A8091E8008E778093FF
:10508000E800DF91CF910895CF93DF93EC010E9468
:10509000182A823011F08430D9F580911F018823BD
:1050A00039F080918B0287FF03C060E282E002C08A
:1050B00068E081E08093E9008FEF9091E8008150F3
:1050C00095FD06C095ED9A95F1F700008111F5CF99
:1050D0008091E80085FF1CC080911F01811105C0EF
:1050E00040E050E068E070E003C070E040E050E075
:1050F000CE010E94352A8091E8008E778093E800E7
:1051000080E2FE01A7E2B2E001900D928A95E1F7FC
:10511000DF91CF91089580919102811109C00E9481
:10512000CA2B0E94272C8091E20084608093E200C9
:105130000895109291020895089508950C9495226F
:1051400042E061EC81E00E94442B42E261EC82E0AB
:105150000C94442B80919402833009F460C030F4A5
:10516000813071F0823009F499C008958A3009F4D1
:1051700085C08B3009F46BC0893009F0A7C020C00E
:1051800080919302813A09F0A1C08091E800877F65
:105190008093E8008091970290919802892B21F4E6
:1051A00060E287E292E003C060E080E090E070E0BF
:1051B0000E94802A8091E8008B778093E800089510
:1051C00080919302813209F081C080919702909181
:1051D0009802029708F07AC08091E800877F809358
:1051E000E8008091E80082FD05C080919202811163
:1051F000F8CF6CC02091F3008091F20090E0922BE8
:10520000029729F48091F1008B7F813021F4809105
:10521000F100809347028091E8008B7753C0809122
:105220009302813A09F052C08091970290919802BE
:10523000892B09F04BC08091E800877F8093E800BC
:105240008091E80080FFFCCF80911F0136C08091E3
:1052500093028132D9F58091970290919802892B1F
:10526000A9F58091E800877F8093E8000E94792B60
:105270008091950280931F010C94F31A8091930200
:10528000813221F58091E800877F8093E8000E94B9
:10529000792B809196028093480208958091930221
:1052A000813AA1F48091E800877F8093E8008091A3
:1052B000E80080FFFCCF809148028093F10080914C
:1052C000E8008E778093E8000C94792B089584B7DA
:1052D000877F84BF0FB6F894A8958091600088619D
:1052E00080936000109260000FBE80E880936100A0
:1052F000109261000E9483150E94CA2B0E94272CE5
:105300008091E20084608093E20078940E94B62E3F
:105310000E94891585E191E00E9416158091920204
:10532000853069F40E944822809190028823B1F36D
:105330000E947D22882391F30E941F2AEFCF0E94B2
:1053400093150E94A114EACF0C94A629292F332784
:1053500023303105C9F064F42130310581F0223069
:10536000310509F04CC08BE390E028ED3CE04BC0E8
:105370002132310521F12232310589F140C082E12B
:1053800090E023E13DE03FC099278130910571F025
:105390002CF4892BA1F5E4EDFCE00DC082309105E1
:1053A00041F0039761F5ECEAFCE005C0E4ECFCE0B9
:1053B00002C0E2EBFCE0849190E09F0124C0611503
:1053C000710541F061307105D1F489E090E023E08E
:1053D0003DE019C089E090E02AEE3CE014C0611580
:1053E000710541F06130710551F480EC90E025E2E7
:1053F0003DE009C080E490E025EE3DE004C080E09F
:1054000090E020E030E0FA01318320830895089590
:10541000CF93C82F0E94072AC0934902CF910895C5
:1054200080919202843011F081E0089582E0089525
:1054300080914902811102C00C94102A089580E1E4
:1054400089BD82E189BD09B400FEFDCF8091D800FD
:105450008F7D8093D8008091E00082608093E0008F
:105460008091E00081FDFCCF0895CF92DF92EF9212
:10547000FF920F931F93CF93DF93EC018B016A018F
:105480000E94982B811133C0C114D10439F0F60168
:1054900080819181081B190BC80FD91FE12CF12CB9
:1054A0000115110519F18091E80085FD16C0809164
:1054B000E8008E778093E800C114D10449F0F6012A
:1054C00080819181E80EF91EF182E08285E00FC0B3
:1054D0000E94982B882321F30AC089918093F100C0
:1054E00001501109FFEFEF1AFF0ADACF80E0DF91D8
:1054F000CF911F910F91FF90EF90DF90CF90089583
:105500002091990230919A022617370748F06115C9
:10551000710539F42091E8002E772093E80001C04E
:10552000B90140E061157105A9F120919202222391
:1055300009F443C0253009F442C02091E80023FD5E
:1055400040C02091E80022FD32C02091E80020FFF9
:10555000E9CF4091F3002091F20030E0342BFC01C0
:10556000CF016115710559F02830310540F4819162
:105570008093F100615071092F5F3F4FF1CF41E0FF
:105580002830310509F040E02091E8002E77209383
:10559000E800C8CF4111C9CF0AC080919202882388
:1055A00061F0853061F08091E80083FD0AC0809150
:1055B000E80082FFF2CF80E0089582E0089583E062
:1055C000089581E008952091990230919A0226175A
:1055D000370748F06115710539F42091E8002E77FE
:1055E0002093E80001C0B901FC0120E061157105BC
:1055F00091F180919202882309F440C0853009F42A
:105600003FC08091E80083FD3DC08091E80082FDAD
:105610002FC08091E80080FFE9CF2091F3008091B6
:10562000F20090E0922B6115710559F088309105D8
:1056300040F424912093F100319661507109019654
:10564000F2CF21E0089709F020E08091E8008E7702
:105650008093E800CBCF2111CCCF0AC08091920279
:10566000882361F0853061F08091E80083FD0AC0F5
:105670008091E80082FFF2CF80E0089582E00895F3
:1056800083E0089581E00895982F973058F590931E
:10569000E900981739F07091EC002091ED005091DD
:1056A000F00003C0242F762F50E021FF19C0309165
:1056B000EB003E7F3093EB003091ED003D7F309367
:1056C000ED003091EB0031603093EB007093EC0013
:1056D0002093ED005093F0002091EE0027FF07C0CB
:1056E0009F5FD3CF8F708093E90081E0089580E0C1
:1056F00008958091930287FF11C08091E80082FD98
:1057000005C0809192028111F8CF11C08091E8000C
:105710008B770BC080919202882349F08091E8003A
:1057200080FFF8CF8091E8008E778093E80008959D
:105730002091E4003091E50095E64091EC00842F43
:10574000817040FF22C08091E80080FD1CC08091E4
:105750009202882391F0853091F08091EB0085FDD5
:1057600010C04091E4005091E5004217530729F31F
:105770009A01915011F784E0089582E0089583E042
:10578000089581E0089580E008954091E80042FF87
:10579000DECF08950E94382C0E94402CE0EEF0E00D
:1057A000808181608083E8EDF0E080818F77808365
:1057B00019BCA7EDB0E08C918E7F8C9380818F7E99
:1057C00080831092910208950F931F93CF93DF93DC
:1057D0000E94382C0E94402CC8EDD0E088818F7741
:1057E000888388818068888388818F7D888319BCBD
:1057F0001092920210928E021092900210928F02DA
:1058000000EE10E0F80180818B7F808388818160C9
:10581000888342E060E080E00E94442BE1EEF0E00B
:1058200080818E7F8083E2EEF0E0808181608083E2
:10583000808188608083F80180818E7F8083888169
:1058400080618883DF91CF911F910F910895E8EDDA
:10585000F0E080818F7E8083E7EDF0E080818160E1
:10586000808384E082BF81E0809391020C94E42BDA
:10587000E8EDF0E080818E7F80831092E200089551
:105880001092DA001092E10008951F920F920FB665
:105890000F9211242F933F934F935F936F937F93B6
:1058A0008F939F93AF93BF93EF93FF938091E1000A
:1058B00082FF0BC08091E20082FF07C08091E1006F
:1058C0008B7F8093E1000E94B52E8091DA0080FFEB
:1058D0001FC08091D80080FF1BC08091DA008E7FAE
:1058E0008093DA008091D90080FF0DC080E189BDEE
:1058F00082E189BD09B400FEFDCF81E08093920270
:105900000E948B2805C019BC109292020E9499280F
:105910008091E10080FF19C08091E20080FF15C0F6
:105920008091E2008E7F8093E2008091E2008061AE
:105930008093E2008091D80080628093D80019BCE7
:1059400085E0809392020E949D288091E10084FF6F
:1059500030C08091E20084FF2CC080E189BD82E1EB
:1059600089BD09B400FEFDCF8091D8008F7D809362
:10597000D8008091E1008F7E8093E1008091E20069
:105980008F7E8093E2008091E20081608093E2004C
:1059900080918E02882311F084E007C08091E3009B
:1059A00087FD02C081E001C083E0809392020E94E3
:1059B0009E288091E10083FF29C08091E20083FF4F
:1059C00025C08091E100877F8093E10082E0809391
:1059D000920210928E028091E1008E7F8093E1000E
:1059E0008091E2008E7F8093E2008091E2008061EE
:1059F0008093E20042E060E080E00E94442B8091CE
:105A0000F00088608093F0000E949C28FF91EF9145
:105A1000BF91AF919F918F917F916F915F914F91C6
:105A20003F912F910F900FBE0F901F9018951F92CE
:105A30000F920FB60F9211242F933F934F935F93C2
:105A40006F937F938F939F93AF93BF93CF93DF9386
:105A5000EF93FF93C091E900CF708091EC00D82FB5
:105A6000D17080FDD0E81092E9008091F000877F2E
:105A70008093F00078940E945B2D1092E900809151
:105A8000F00088608093F000CD2BCF70C093E900C8
:105A9000FF91EF91DF91CF91BF91AF919F918F9146
:105AA0007F916F915F914F913F912F910F900FBE1A
:105AB0000F901F9018951F93CF93DF93CDB7DEB74C
:105AC000AA970FB6F894DEBF0FBECDBFE3E9F2E0B0
:105AD00088E08E0F9091F10091938E13FBCF0E947E
